{
  "contractName": "Voting",
  "abi": [
    {
      "inputs": [
        {
          "internalType": "address",
          "name": "_tokenAddress",
          "type": "address"
        }
      ],
      "stateMutability": "nonpayable",
      "type": "constructor"
    },
    {
      "anonymous": false,
      "inputs": [
        {
          "indexed": false,
          "internalType": "uint256",
          "name": "id",
          "type": "uint256"
        },
        {
          "indexed": false,
          "internalType": "string",
          "name": "description",
          "type": "string"
        }
      ],
      "name": "ProposalCreated",
      "type": "event"
    },
    {
      "anonymous": false,
      "inputs": [
        {
          "indexed": false,
          "internalType": "uint256",
          "name": "id",
          "type": "uint256"
        }
      ],
      "name": "ProposalExecuted",
      "type": "event"
    },
    {
      "anonymous": false,
      "inputs": [
        {
          "indexed": false,
          "internalType": "uint256",
          "name": "proposalId",
          "type": "uint256"
        },
        {
          "indexed": false,
          "internalType": "address",
          "name": "voter",
          "type": "address"
        }
      ],
      "name": "Voted",
      "type": "event"
    },
    {
      "inputs": [],
      "name": "proposalCount",
      "outputs": [
        {
          "internalType": "uint256",
          "name": "",
          "type": "uint256"
        }
      ],
      "stateMutability": "view",
      "type": "function",
      "constant": true
    },
    {
      "inputs": [
        {
          "internalType": "uint256",
          "name": "",
          "type": "uint256"
        }
      ],
      "name": "proposals",
      "outputs": [
        {
          "internalType": "uint256",
          "name": "id",
          "type": "uint256"
        },
        {
          "internalType": "string",
          "name": "description",
          "type": "string"
        },
        {
          "internalType": "uint256",
          "name": "voteCount",
          "type": "uint256"
        },
        {
          "internalType": "bool",
          "name": "executed",
          "type": "bool"
        }
      ],
      "stateMutability": "view",
      "type": "function",
      "constant": true
    },
    {
      "inputs": [],
      "name": "token",
      "outputs": [
        {
          "internalType": "contract GovernanceToken",
          "name": "",
          "type": "address"
        }
      ],
      "stateMutability": "view",
      "type": "function",
      "constant": true
    },
    {
      "inputs": [
        {
          "internalType": "string",
          "name": "description",
          "type": "string"
        }
      ],
      "name": "createProposal",
      "outputs": [],
      "stateMutability": "nonpayable",
      "type": "function"
    },
    {
      "inputs": [
        {
          "internalType": "uint256",
          "name": "proposalId",
          "type": "uint256"
        }
      ],
      "name": "vote",
      "outputs": [],
      "stateMutability": "nonpayable",
      "type": "function"
    },
    {
      "inputs": [
        {
          "internalType": "uint256",
          "name": "proposalId",
          "type": "uint256"
        }
      ],
      "name": "executeProposal",
      "outputs": [],
      "stateMutability": "nonpayable",
      "type": "function"
    }
  ],
  "bytecode": "0x608060405234801562000010575f80fd5b50604051620010d7380380620010d78339818101604052810190620000369190620000e1565b805f806101000a81548173ffffffffffffffffffffffffffffffffffffffff021916908373ffffffffffffffffffffffffffffffffffffffff1602179055505062000111565b5f80fd5b5f73ffffffffffffffffffffffffffffffffffffffff82169050919050565b5f620000ab8262000080565b9050919050565b620000bd816200009f565b8114620000c8575f80fd5b50565b5f81519050620000db81620000b2565b92915050565b5f60208284031215620000f957620000f86200007c565b5b5f6200010884828501620000cb565b91505092915050565b610fb8806200011f5f395ff3fe608060405234801561000f575f80fd5b5060043610610060575f3560e01c80630121b93f14610064578063013cf08b146100805780630d61b519146100b357806349c2a1a6146100cf578063da35c664146100eb578063fc0c546a14610109575b5f80fd5b61007e600480360381019061007991906106cf565b610127565b005b61009a600480360381019061009591906106cf565b6103b2565b6040516100aa94939291906107ad565b60405180910390f35b6100cd60048036038101906100c891906106cf565b610470565b005b6100e960048036038101906100e49190610923565b61058b565b005b6100f3610662565b604051610100919061096a565b60405180910390f35b610111610668565b60405161011e91906109fd565b60405180910390f35b5f60015f8381526020019081526020015f205f01540361017c576040517f08c379a000000000000000000000000000000000000000000000000000000000815260040161017390610a60565b60405180910390fd5b60015f8281526020019081526020015f206003015f9054906101000a900460ff16156101dd576040517f08c379a00000000000000000000000000000000000000000000000000000000081526004016101d490610ac8565b60405180910390fd5b5f805f9054906101000a900473ffffffffffffffffffffffffffffffffffffffff1673ffffffffffffffffffffffffffffffffffffffff166370a08231336040518263ffffffff1660e01b81526004016102379190610b06565b602060405180830381865afa158015610252573d5f803e3d5ffd5b505050506040513d601f19601f820116820180604052508101906102769190610b33565b116102b6576040517f08c379a00000000000000000000000000000000000000000000000000000000081526004016102ad90610ba8565b60405180910390fd5b5f8054906101000a900473ffffffffffffffffffffffffffffffffffffffff1673ffffffffffffffffffffffffffffffffffffffff166370a08231336040518263ffffffff1660e01b815260040161030e9190610b06565b602060405180830381865afa158015610329573d5f803e3d5ffd5b505050506040513d601f19601f8201168201806040525081019061034d9190610b33565b60015f8381526020019081526020015f206002015f82825461036f9190610bf3565b925050819055507f030b0f8dcd86a031eddb071f91882edeac8173663ba775713b677b42b51be44b81336040516103a7929190610c26565b60405180910390a150565b6001602052805f5260405f205f91509050805f0154908060010180546103d790610c7a565b80601f016020809104026020016040519081016040528092919081815260200182805461040390610c7a565b801561044e5780601f106104255761010080835404028352916020019161044e565b820191905f5260205f20905b81548152906001019060200180831161043157829003601f168201915b505050505090806002015490806003015f9054906101000a900460ff16905084565b5f60015f8381526020019081526020015f205f0154036104c5576040517f08c379a00000000000000000000000000000000000000000000000000000000081526004016104bc90610a60565b60405180910390fd5b60015f8281526020019081526020015f206003015f9054906101000a900460ff1615610526576040517f08c379a000000000000000000000000000000000000000000000000000000000815260040161051d90610ac8565b60405180910390fd5b6001805f8381526020019081526020015f206003015f6101000a81548160ff0219169083151502179055507f712ae1383f79ac853f8d882153778e0260ef8f03b504e2866e0593e04d2b291f81604051610580919061096a565b60405180910390a150565b60025f81548092919061059d90610caa565b9190505550604051806080016040528060025481526020018281526020015f81526020015f151581525060015f60025481526020019081526020015f205f820151815f015560208201518160010190816105f79190610e85565b50604082015181600201556060820151816003015f6101000a81548160ff0219169083151502179055509050507f9c770c289ab5bf7e57cb1d23c8ceae993aea46eb64847072fd3d78ca60d3e43260025482604051610657929190610f54565b60405180910390a150565b60025481565b5f8054906101000a900473ffffffffffffffffffffffffffffffffffffffff1681565b5f604051905090565b5f80fd5b5f80fd5b5f819050919050565b6106ae8161069c565b81146106b8575f80fd5b50565b5f813590506106c9816106a5565b92915050565b5f602082840312156106e4576106e3610694565b5b5f6106f1848285016106bb565b91505092915050565b6107038161069c565b82525050565b5f81519050919050565b5f82825260208201905092915050565b5f5b83811015610740578082015181840152602081019050610725565b5f8484015250505050565b5f601f19601f8301169050919050565b5f61076582610709565b61076f8185610713565b935061077f818560208601610723565b6107888161074b565b840191505092915050565b5f8115159050919050565b6107a781610793565b82525050565b5f6080820190506107c05f8301876106fa565b81810360208301526107d2818661075b565b90506107e160408301856106fa565b6107ee606083018461079e565b95945050505050565b5f80fd5b5f80fd5b7f4e487b71000000000000000000000000000000000000000000000000000000005f52604160045260245ffd5b6108358261074b565b810181811067ffffffffffffffff82111715610854576108536107ff565b5b80604052505050565b5f61086661068b565b9050610872828261082c565b919050565b5f67ffffffffffffffff821115610891576108906107ff565b5b61089a8261074b565b9050602081019050919050565b828183375f83830152505050565b5f6108c76108c284610877565b61085d565b9050828152602081018484840111156108e3576108e26107fb565b5b6108ee8482856108a7565b509392505050565b5f82601f83011261090a576109096107f7565b5b813561091a8482602086016108b5565b91505092915050565b5f6020828403121561093857610937610694565b5b5f82013567ffffffffffffffff81111561095557610954610698565b5b610961848285016108f6565b91505092915050565b5f60208201905061097d5f8301846106fa565b92915050565b5f73ffffffffffffffffffffffffffffffffffffffff82169050919050565b5f819050919050565b5f6109c56109c06109bb84610983565b6109a2565b610983565b9050919050565b5f6109d6826109ab565b9050919050565b5f6109e7826109cc565b9050919050565b6109f7816109dd565b82525050565b5f602082019050610a105f8301846109ee565b92915050565b7f50726f706f73616c20646f6573206e6f742065786973740000000000000000005f82015250565b5f610a4a601783610713565b9150610a5582610a16565b602082019050919050565b5f6020820190508181035f830152610a7781610a3e565b9050919050565b7f50726f706f73616c20616c7265616479206578656375746564000000000000005f82015250565b5f610ab2601983610713565b9150610abd82610a7e565b602082019050919050565b5f6020820190508181035f830152610adf81610aa6565b9050919050565b5f610af082610983565b9050919050565b610b0081610ae6565b82525050565b5f602082019050610b195f830184610af7565b92915050565b5f81519050610b2d816106a5565b92915050565b5f60208284031215610b4857610b47610694565b5b5f610b5584828501610b1f565b91505092915050565b7f4e6f20766f74696e6720706f77657200000000000000000000000000000000005f82015250565b5f610b92600f83610713565b9150610b9d82610b5e565b602082019050919050565b5f6020820190508181035f830152610bbf81610b86565b9050919050565b7f4e487b71000000000000000000000000000000000000000000000000000000005f52601160045260245ffd5b5f610bfd8261069c565b9150610c088361069c565b9250828201905080821115610c2057610c1f610bc6565b5b92915050565b5f604082019050610c395f8301856106fa565b610c466020830184610af7565b9392505050565b7f4e487b71000000000000000000000000000000000000000000000000000000005f52602260045260245ffd5b5f6002820490506001821680610c9157607f821691505b602082108103610ca457610ca3610c4d565b5b50919050565b5f610cb48261069c565b91507fffffffffffffffffffffffffffffffffffffffffffffffffffffffffffffffff8203610ce657610ce5610bc6565b5b600182019050919050565b5f819050815f5260205f209050919050565b5f6020601f8301049050919050565b5f82821b905092915050565b5f60088302610d4d7fffffffffffffffffffffffffffffffffffffffffffffffffffffffffffffffff82610d12565b610d578683610d12565b95508019841693508086168417925050509392505050565b5f610d89610d84610d7f8461069c565b6109a2565b61069c565b9050919050565b5f819050919050565b610da283610d6f565b610db6610dae82610d90565b848454610d1e565b825550505050565b5f90565b610dca610dbe565b610dd5818484610d99565b505050565b5b81811015610df857610ded5f82610dc2565b600181019050610ddb565b5050565b601f821115610e3d57610e0e81610cf1565b610e1784610d03565b81016020851015610e26578190505b610e3a610e3285610d03565b830182610dda565b50505b505050565b5f82821c905092915050565b5f610e5d5f1984600802610e42565b1980831691505092915050565b5f610e758383610e4e565b9150826002028217905092915050565b610e8e82610709565b67ffffffffffffffff811115610ea757610ea66107ff565b5b610eb18254610c7a565b610ebc828285610dfc565b5f60209050601f831160018114610eed575f8415610edb578287015190505b610ee58582610e6a565b865550610f4c565b601f198416610efb86610cf1565b5f5b82811015610f2257848901518255600182019150602085019450602081019050610efd565b86831015610f3f5784890151610f3b601f891682610e4e565b8355505b6001600288020188555050505b505050505050565b5f604082019050610f675f8301856106fa565b8181036020830152610f79818461075b565b9050939250505056fea2646970667358221220b39e7cefb58e3a7ce93306a8f59f79a582e22b0d85449b09b2ed7ff15420781864736f6c63430008150033",
  "immutableReferences": {},
  "source": "// SPDX-License-Identifier: MIT\r\npragma solidity ^0.8.21;\r\n\r\nimport \"./GovernanceToken.sol\";\r\n\r\ncontract Voting {\r\n    struct Proposal {\r\n        uint id;\r\n        string description;\r\n        uint voteCount;\r\n        bool executed;\r\n    }\r\n\r\n    GovernanceToken public token;\r\n    mapping(uint => Proposal) public proposals;\r\n    uint public proposalCount;\r\n\r\n    event ProposalCreated(uint id, string description);\r\n    event Voted(uint proposalId, address voter);\r\n    event ProposalExecuted(uint id);\r\n\r\n    constructor(address _tokenAddress) {\r\n        token = GovernanceToken(_tokenAddress);\r\n    }\r\n\r\n    function createProposal(string memory description) public {\r\n        proposalCount++;\r\n        proposals[proposalCount] = Proposal(proposalCount, description, 0, false);\r\n        emit ProposalCreated(proposalCount, description);\r\n    }\r\n\r\n    function vote(uint proposalId) public {\r\n        require(proposals[proposalId].id != 0, \"Proposal does not exist\");\r\n        require(!proposals[proposalId].executed, \"Proposal already executed\");\r\n        require(token.balanceOf(msg.sender) > 0, \"No voting power\");\r\n\r\n        proposals[proposalId].voteCount += token.balanceOf(msg.sender);\r\n        emit Voted(proposalId, msg.sender);\r\n    }\r\n\r\n    function executeProposal(uint proposalId) public {\r\n        require(proposals[proposalId].id != 0, \"Proposal does not exist\");\r\n        require(!proposals[proposalId].executed, \"Proposal already executed\");\r\n\r\n        proposals[proposalId].executed = true;\r\n        emit ProposalExecuted(proposalId);\r\n    }\r\n}\r\n",
  "sourcePath": "C:\\Users\\lifea\\OneDrive\\Desktop\\Development\\dao-platform\\contracts\\Voting.sol",
  "compiler": {
    "name": "solc",
    "version": "0.8.21+commit.d9974bed.Emscripten.clang"
  },
  "schemaVersion": "3.4.16",
  "updatedAt": "2024-08-26T16:20:36.134Z",
  "networkType": "ethereum",
  "devdoc": {
    "kind": "dev",
    "methods": {},
    "version": 1
  },
  "userdoc": {
    "kind": "user",
    "methods": {},
    "version": 1
  }
}